{
  "_format": "hh-sol-artifact-1",
  "contractName": "PredictionContract",
  "sourceName": "contracts/PredictionContract.sol",
  "abi": [
    {
      "inputs": [
        {
          "internalType": "address",
          "name": "_resultsConsumer",
          "type": "address"
        }
      ],
      "stateMutability": "nonpayable",
      "type": "constructor"
    },
    {
      "inputs": [
        {
          "internalType": "uint256",
          "name": "requested",
          "type": "uint256"
        },
        {
          "internalType": "uint256",
          "name": "available",
          "type": "uint256"
        }
      ],
      "name": "InsufficientBalance",
      "type": "error"
    },
    {
      "inputs": [],
      "name": "InvalidAmount",
      "type": "error"
    },
    {
      "inputs": [],
      "name": "InvalidBet",
      "type": "error"
    },
    {
      "inputs": [],
      "name": "InvalidPrediction",
      "type": "error"
    },
    {
      "inputs": [
        {
          "internalType": "uint256",
          "name": "gameweek",
          "type": "uint256"
        },
        {
          "internalType": "uint256",
          "name": "matchId",
          "type": "uint256"
        }
      ],
      "name": "MatchAlreadySettled",
      "type": "error"
    },
    {
      "inputs": [
        {
          "internalType": "uint256",
          "name": "gameweek",
          "type": "uint256"
        },
        {
          "internalType": "uint256",
          "name": "matchId",
          "type": "uint256"
        }
      ],
      "name": "MatchNotFulfilled",
      "type": "error"
    },
    {
      "inputs": [],
      "name": "NotOwner",
      "type": "error"
    },
    {
      "inputs": [],
      "name": "WithdrawalFailed",
      "type": "error"
    },
    {
      "anonymous": false,
      "inputs": [
        {
          "indexed": true,
          "internalType": "uint256",
          "name": "betId",
          "type": "uint256"
        },
        {
          "indexed": true,
          "internalType": "address",
          "name": "bettor",
          "type": "address"
        },
        {
          "indexed": true,
          "internalType": "uint256",
          "name": "gameweek",
          "type": "uint256"
        },
        {
          "indexed": false,
          "internalType": "uint256",
          "name": "matchId",
          "type": "uint256"
        },
        {
          "indexed": false,
          "internalType": "enum PredictionContract.Prediction",
          "name": "prediction",
          "type": "uint8"
        },
        {
          "indexed": false,
          "internalType": "uint256",
          "name": "amount",
          "type": "uint256"
        }
      ],
      "name": "BetPlaced",
      "type": "event"
    },
    {
      "anonymous": false,
      "inputs": [
        {
          "indexed": true,
          "internalType": "uint256",
          "name": "betId",
          "type": "uint256"
        },
        {
          "indexed": true,
          "internalType": "address",
          "name": "bettor",
          "type": "address"
        },
        {
          "indexed": false,
          "internalType": "bool",
          "name": "isWinner",
          "type": "bool"
        },
        {
          "indexed": false,
          "internalType": "uint256",
          "name": "payout",
          "type": "uint256"
        }
      ],
      "name": "BetSettled",
      "type": "event"
    },
    {
      "anonymous": false,
      "inputs": [
        {
          "indexed": true,
          "internalType": "address",
          "name": "recipient",
          "type": "address"
        },
        {
          "indexed": false,
          "internalType": "uint256",
          "name": "amount",
          "type": "uint256"
        },
        {
          "indexed": false,
          "internalType": "uint256",
          "name": "remainingBalance",
          "type": "uint256"
        }
      ],
      "name": "FeesWithdrawn",
      "type": "event"
    },
    {
      "anonymous": false,
      "inputs": [
        {
          "indexed": true,
          "internalType": "uint256",
          "name": "gameweek",
          "type": "uint256"
        },
        {
          "indexed": true,
          "internalType": "uint256",
          "name": "matchId",
          "type": "uint256"
        },
        {
          "indexed": false,
          "internalType": "enum PredictionContract.MatchOutcome",
          "name": "outcome",
          "type": "uint8"
        },
        {
          "indexed": false,
          "internalType": "uint256",
          "name": "totalWinners",
          "type": "uint256"
        },
        {
          "indexed": false,
          "internalType": "uint256",
          "name": "totalAmount",
          "type": "uint256"
        }
      ],
      "name": "MatchSettled",
      "type": "event"
    },
    {
      "inputs": [
        {
          "internalType": "uint256",
          "name": "",
          "type": "uint256"
        }
      ],
      "name": "bets",
      "outputs": [
        {
          "internalType": "address",
          "name": "bettor",
          "type": "address"
        },
        {
          "internalType": "uint256",
          "name": "gameweek",
          "type": "uint256"
        },
        {
          "internalType": "uint256",
          "name": "matchId",
          "type": "uint256"
        },
        {
          "internalType": "uint256",
          "name": "amount",
          "type": "uint256"
        },
        {
          "internalType": "enum PredictionContract.Prediction",
          "name": "prediction",
          "type": "uint8"
        },
        {
          "internalType": "bool",
          "name": "isSettled",
          "type": "bool"
        },
        {
          "internalType": "bool",
          "name": "isWinner",
          "type": "bool"
        },
        {
          "internalType": "uint256",
          "name": "timestamp",
          "type": "uint256"
        }
      ],
      "stateMutability": "view",
      "type": "function"
    },
    {
      "inputs": [],
      "name": "getBalance",
      "outputs": [
        {
          "internalType": "uint256",
          "name": "",
          "type": "uint256"
        }
      ],
      "stateMutability": "view",
      "type": "function"
    },
    {
      "inputs": [
        {
          "internalType": "uint256",
          "name": "betId",
          "type": "uint256"
        }
      ],
      "name": "getBet",
      "outputs": [
        {
          "components": [
            {
              "internalType": "address",
              "name": "bettor",
              "type": "address"
            },
            {
              "internalType": "uint256",
              "name": "gameweek",
              "type": "uint256"
            },
            {
              "internalType": "uint256",
              "name": "matchId",
              "type": "uint256"
            },
            {
              "internalType": "uint256",
              "name": "amount",
              "type": "uint256"
            },
            {
              "internalType": "enum PredictionContract.Prediction",
              "name": "prediction",
              "type": "uint8"
            },
            {
              "internalType": "bool",
              "name": "isSettled",
              "type": "bool"
            },
            {
              "internalType": "bool",
              "name": "isWinner",
              "type": "bool"
            },
            {
              "internalType": "uint256",
              "name": "timestamp",
              "type": "uint256"
            }
          ],
          "internalType": "struct PredictionContract.Bet",
          "name": "",
          "type": "tuple"
        }
      ],
      "stateMutability": "view",
      "type": "function"
    },
    {
      "inputs": [
        {
          "internalType": "uint256",
          "name": "gameweek",
          "type": "uint256"
        },
        {
          "internalType": "uint256",
          "name": "matchId",
          "type": "uint256"
        }
      ],
      "name": "isMatchSettled",
      "outputs": [
        {
          "internalType": "bool",
          "name": "",
          "type": "bool"
        }
      ],
      "stateMutability": "view",
      "type": "function"
    },
    {
      "inputs": [],
      "name": "nextBetId",
      "outputs": [
        {
          "internalType": "uint256",
          "name": "",
          "type": "uint256"
        }
      ],
      "stateMutability": "view",
      "type": "function"
    },
    {
      "inputs": [],
      "name": "owner",
      "outputs": [
        {
          "internalType": "address",
          "name": "",
          "type": "address"
        }
      ],
      "stateMutability": "view",
      "type": "function"
    },
    {
      "inputs": [
        {
          "internalType": "uint256",
          "name": "gameweek",
          "type": "uint256"
        },
        {
          "internalType": "uint256",
          "name": "matchId",
          "type": "uint256"
        },
        {
          "internalType": "enum PredictionContract.Prediction",
          "name": "prediction",
          "type": "uint8"
        }
      ],
      "name": "placeBet",
      "outputs": [
        {
          "internalType": "uint256",
          "name": "betId",
          "type": "uint256"
        }
      ],
      "stateMutability": "payable",
      "type": "function"
    },
    {
      "inputs": [],
      "name": "resultsConsumer",
      "outputs": [
        {
          "internalType": "contract ResultsConsumer",
          "name": "",
          "type": "address"
        }
      ],
      "stateMutability": "view",
      "type": "function"
    },
    {
      "inputs": [
        {
          "internalType": "uint256",
          "name": "gameweek",
          "type": "uint256"
        },
        {
          "internalType": "uint256",
          "name": "matchId",
          "type": "uint256"
        }
      ],
      "name": "settleMatch",
      "outputs": [],
      "stateMutability": "nonpayable",
      "type": "function"
    },
    {
      "inputs": [
        {
          "internalType": "uint256",
          "name": "",
          "type": "uint256"
        },
        {
          "internalType": "uint256",
          "name": "",
          "type": "uint256"
        }
      ],
      "name": "settledMatches",
      "outputs": [
        {
          "internalType": "bool",
          "name": "",
          "type": "bool"
        }
      ],
      "stateMutability": "view",
      "type": "function"
    },
    {
      "inputs": [
        {
          "internalType": "address",
          "name": "newOwner",
          "type": "address"
        }
      ],
      "name": "transferOwnership",
      "outputs": [],
      "stateMutability": "nonpayable",
      "type": "function"
    },
    {
      "inputs": [
        {
          "internalType": "uint256",
          "name": "amount",
          "type": "uint256"
        }
      ],
      "name": "withdrawFees",
      "outputs": [],
      "stateMutability": "nonpayable",
      "type": "function"
    }
  ],
  "bytecode": "0x60a03461008557601f610f1f38819003918201601f19168301916001600160401b0383118484101761008a5780849260209460405283398101031261008557516001600160a01b0381169081900361008557608052600080546001600160a01b03191633179055604051610e7e90816100a1823960805181818161033c015261047e0152f35b600080fd5b634e487b7160e01b600052604160045260246000fdfe608080604052600436101561001357600080fd5b60e0600035811c918263061e494f14610beb5750816312065fe014610bcf57816322af00fa14610b3d5781632774039314610117578163550d0320146104535781635e318e071461036b57816364b22bac146103265781638da5cb5b146102fd5781639aca2792146102df5781639e14427e1461014f57508063b5c65fa6146101175763f2fde38b146100a557600080fd5b34610112576020366003190112610112576004356001600160a01b03818116918290036101125760005490811633036101005781156100ee576001600160a01b03191617600055005b60405163aa82224960e01b8152600490fd5b6040516330cd747160e01b8152600490fd5b600080fd5b346101125761012536610d2e565b906000526002602052604060002090600052602052602060ff604060002054166040519015158152f35b6060366003190112610112576044359060043560243560038410156101125734156102cd57811580156102c5575b6100ee576020936003549361019185610d44565b6003556005604051916101a383610d53565b338352610279888401918783526040850190878252606086019134835260808701926101ce89610d0e565b88845260a08801916000835260c0890193600085528901964288528d60005260018f5260406000209960018060a01b039051166bffffffffffffffffffffffff60a01b8b5416178a555160018a01555160028901555160038801556004870192519061023982610d0e565b61024282610d0e565b60ff61ff0085549251151560081b1692169061ffff19161717825551151562ff0000825491151560101b169062ff00001916179055565b5191015560405191825261028c81610d0e565b84820152346040820152827f528c9aef96acb96f8a87d37921ff112cc0a2bc91086d7903436eab809cd7695a60603393a4604051908152f35b50801561017d565b60405163162908e360e11b8152600490fd5b34610112576000366003190112610112576020600354604051908152f35b34610112576000366003190112610112576000546040516001600160a01b039091168152602090f35b34610112576000366003190112610112576040517f00000000000000000000000000000000000000000000000000000000000000006001600160a01b03168152602090f35b3461011257602036600319011261011257600054600435906001600160a01b0390811690338290036101005747928061044d575082915b82156102cd5783831161042f57600080808581945af16103c0610e18565b501561041d576000541691818103908111610407577fdeb5099d7943aa2b4c1142e5d53d2f7636aa8f7bd130ec79816f151572bcdf459160409182519182526020820152a2005b634e487b7160e01b600052601160045260246000fd5b6040516327fcd9d160e01b8152600490fd5b604483856040519163cf47918160e01b835260048301526024820152fd5b916103a2565b346101125761046136610d2e565b604051630e9d5e4560e01b815260048101839052602481018290527f00000000000000000000000000000000000000000000000000000000000000006001600160a01b031690602081604481855afa908115610abb57600091610b03575b5015610ae55782600052600260205260406000208260005260205260ff60406000205416610ac757600060449160405192838092636147b9a160e11b82528760048301528660248301525afa908115610abb576000916109a4575b5060ff6020818351169201511680821160001461098e5750506000915b8060005260026020526040600020826000526020526040600020600160ff198254161790556000906000806000956003549661057288610dc9565b97610580604051998a610d70565b80895261058f601f1991610dc9565b013660208a01376000805b600354811015610727578060005260016020526040600020876001820154148061071a575b80610708575b6105d9575b506105d490610d44565b61059a565b9497816105ef6105e885610d44565b948d610de1565b526105ff60038701548098610e0b565b96600061060b87610d0e565b8615806106f0575b80156106c2575b8015610694575b1561067757509061066460046106466105d49594610640600195610d44565b9d610e0b565b985b01805462ff0000191692151560101b62ff000016929092178255565b805461ff001916610100179055906105ca565b90600461068e610664926105d496959d9a98610e0b565b96610648565b5061069e87610d0e565b6002871480156106215750600260ff60048a0154166106bc81610d0e565b14610621565b506106cc87610d0e565b60018714801561061a5750600160ff60048a0154166106ea81610d0e565b1461061a565b5060ff60048901541661070281610d0e565b15610613565b5060ff600482015460081c16156105c5565b50896002820154146105bf565b5091949592908891841591821580610985575b156108ab5761074891610e0b565b90610895578390049060005b8381106107a25750505050916060917f8d051c88310a41d0bb6112a3f473ceb0e7d1ac5ae91a46dd248bd82a3a3ce1b1935b6040519261079381610d0e565b835260208301526040820152a3005b806107b06107f69284610de1565b516000526001602052604060002060ff600482015460101c166000146108485760008080808860018060a01b038654165af16107ea610e18565b506107fb575b50610d44565b610754565b6108058285610de1565b519060018060a01b03905416907fe730d6310bec1dfc964bdf1e3f75a78c8ef2dee9d092f9ff09253258852ed7d46040805160018152886020820152a38a6107f0565b6108528285610de1565b519060018060a01b03905416907fe730d6310bec1dfc964bdf1e3f75a78c8ef2dee9d092f9ff09253258852ed7d4604080516000815260006020820152a3610d44565b634e487b7160e01b600052601260045260246000fd5b50505060005b8281106108e657505050916060917f8d051c88310a41d0bb6112a3f473ceb0e7d1ac5ae91a46dd248bd82a3a3ce1b193610786565b806108f46109319284610de1565b516000526001602052604060002060018060a01b0381541690600080808060038501958654905af1610924610e18565b50610936575b5050610d44565b6108b1565b7fe730d6310bec1dfc964bdf1e3f75a78c8ef2dee9d092f9ff09253258852ed7d460406109638588610de1565b519260018060a01b039054169354815190600082526020820152a3898061092a565b5081151561073a565b111561099c57600291610537565b600191610537565b90503d806000833e6109b68183610d70565b810160208282031261011257815167ffffffffffffffff9283821161011257019060a082820312610112576040519260a0840184811082821117610aa557604052610a0083610d9f565b8452610a0e60208401610d9f565b6020850152604083015190811161011257820181601f8201121561011257805190610a3882610dad565b92610a466040519485610d70565b828452602083830101116101125760005b828110610a90575050918160006020610a859560809501015260408501526060810151606085015201610d92565b60808201528361051a565b80602080928401015182828701015201610a57565b634e487b7160e01b600052604160045260246000fd5b6040513d6000823e3d90fd5b604483836040519163b1ce3f0360e01b835260048301526024820152fd5b6044838360405191632ed3087d60e01b835260048301526024820152fd5b90506020813d602011610b35575b81610b1e60209383610d70565b8101031261011257610b2f90610d92565b846104bf565b3d9150610b11565b3461011257602036600319011261011257610100906004356000526001602052604060002060018060a01b038154169160ff6001830154926002810154906003810154600482015492600585851693015496604051988952602089015260408801526060870152610bad81610d0e565b6080860152818160081c16151560a086015260101c16151560c0840152820152f35b3461011257600036600319011261011257602047604051908152f35b90346101125760203660031901126101125760008183610c0d61010095610d53565b8281528260208201528260408201528260608201528260808201528260a08201528260c08201520152600435600052600160205260406000209060405191610c5483610d53565b80546001600160a01b039081168452600182015460208501908152600283015460408601908152600384015460608701908152600485015493949260808801929060ff8616610ca281610d0e565b8452600560a08a019560ff8860081c161515875260ff60c08c019860101c1615158852015496888a01978852604051995116895251602089015251604088015251606087015251610cf281610d0e565b608086015251151560a085015251151560c08401525190820152f35b60031115610d1857565b634e487b7160e01b600052602160045260246000fd5b6040906003190112610112576004359060243590565b60001981146104075760010190565b610100810190811067ffffffffffffffff821117610aa557604052565b90601f8019910116810190811067ffffffffffffffff821117610aa557604052565b5190811515820361011257565b519060ff8216820361011257565b67ffffffffffffffff8111610aa557601f01601f191660200190565b67ffffffffffffffff8111610aa55760051b60200190565b8051821015610df55760209160051b010190565b634e487b7160e01b600052603260045260246000fd5b9190820180921161040757565b3d15610e43573d90610e2982610dad565b91610e376040519384610d70565b82523d6000602084013e565b60609056fea2646970667358221220089b141ce4cc50505621bd2a833bc889a832baa160c1c10b2e5f36784ab4ece864736f6c63430008140033",
  "linkReferences": {},
  "deployedLinkReferences": {}
}