{
  "_format": "hh-sol-artifact-1",
  "contractName": "ResultsConsumer",
  "sourceName": "contracts/ResultsConsumer.sol",
  "abi": [
    {
      "inputs": [
        {
          "internalType": "address",
          "name": "router",
          "type": "address"
        },
        {
          "internalType": "string",
          "name": "donIdString",
          "type": "string"
        }
      ],
      "stateMutability": "nonpayable",
      "type": "constructor"
    },
    {
      "inputs": [],
      "name": "EmptySource",
      "type": "error"
    },
    {
      "inputs": [],
      "name": "InvalidConfiguration",
      "type": "error"
    },
    {
      "inputs": [],
      "name": "InvalidGameweek",
      "type": "error"
    },
    {
      "inputs": [],
      "name": "InvalidMatchId",
      "type": "error"
    },
    {
      "inputs": [
        {
          "internalType": "bytes32",
          "name": "requestId",
          "type": "bytes32"
        }
      ],
      "name": "InvalidRequestId",
      "type": "error"
    },
    {
      "inputs": [],
      "name": "InvalidResultData",
      "type": "error"
    },
    {
      "inputs": [],
      "name": "InvalidScore",
      "type": "error"
    },
    {
      "inputs": [],
      "name": "InvalidStatus",
      "type": "error"
    },
    {
      "inputs": [],
      "name": "NoInlineSecrets",
      "type": "error"
    },
    {
      "inputs": [],
      "name": "OnlyRouterCanFulfill",
      "type": "error"
    },
    {
      "inputs": [
        {
          "internalType": "bytes32",
          "name": "requestId",
          "type": "bytes32"
        }
      ],
      "name": "RequestAlreadyFulfilled",
      "type": "error"
    },
    {
      "inputs": [
        {
          "internalType": "uint256",
          "name": "gameweek",
          "type": "uint256"
        },
        {
          "internalType": "uint256",
          "name": "matchId",
          "type": "uint256"
        }
      ],
      "name": "ResultAlreadySet",
      "type": "error"
    },
    {
      "inputs": [
        {
          "internalType": "address",
          "name": "caller",
          "type": "address"
        }
      ],
      "name": "UnauthorizedCaller",
      "type": "error"
    },
    {
      "anonymous": false,
      "inputs": [
        {
          "indexed": true,
          "internalType": "address",
          "name": "caller",
          "type": "address"
        }
      ],
      "name": "AuthorizedCallerAdded",
      "type": "event"
    },
    {
      "anonymous": false,
      "inputs": [
        {
          "indexed": true,
          "internalType": "address",
          "name": "caller",
          "type": "address"
        }
      ],
      "name": "AuthorizedCallerRemoved",
      "type": "event"
    },
    {
      "anonymous": false,
      "inputs": [
        {
          "indexed": false,
          "internalType": "bytes32",
          "name": "donId",
          "type": "bytes32"
        },
        {
          "indexed": false,
          "internalType": "uint64",
          "name": "subscriptionId",
          "type": "uint64"
        },
        {
          "indexed": false,
          "internalType": "uint32",
          "name": "callbackGasLimit",
          "type": "uint32"
        }
      ],
      "name": "ConfigurationUpdated",
      "type": "event"
    },
    {
      "anonymous": false,
      "inputs": [
        {
          "indexed": true,
          "internalType": "address",
          "name": "from",
          "type": "address"
        },
        {
          "indexed": true,
          "internalType": "address",
          "name": "to",
          "type": "address"
        }
      ],
      "name": "OwnershipTransferRequested",
      "type": "event"
    },
    {
      "anonymous": false,
      "inputs": [
        {
          "indexed": true,
          "internalType": "address",
          "name": "from",
          "type": "address"
        },
        {
          "indexed": true,
          "internalType": "address",
          "name": "to",
          "type": "address"
        }
      ],
      "name": "OwnershipTransferred",
      "type": "event"
    },
    {
      "anonymous": false,
      "inputs": [
        {
          "indexed": true,
          "internalType": "bytes32",
          "name": "requestId",
          "type": "bytes32"
        },
        {
          "indexed": true,
          "internalType": "uint256",
          "name": "gameweek",
          "type": "uint256"
        },
        {
          "indexed": true,
          "internalType": "uint256",
          "name": "matchId",
          "type": "uint256"
        },
        {
          "indexed": false,
          "internalType": "bytes",
          "name": "error",
          "type": "bytes"
        }
      ],
      "name": "RequestFailed",
      "type": "event"
    },
    {
      "anonymous": false,
      "inputs": [
        {
          "indexed": true,
          "internalType": "bytes32",
          "name": "id",
          "type": "bytes32"
        }
      ],
      "name": "RequestFulfilled",
      "type": "event"
    },
    {
      "anonymous": false,
      "inputs": [
        {
          "indexed": true,
          "internalType": "bytes32",
          "name": "id",
          "type": "bytes32"
        }
      ],
      "name": "RequestSent",
      "type": "event"
    },
    {
      "anonymous": false,
      "inputs": [
        {
          "indexed": true,
          "internalType": "bytes32",
          "name": "requestId",
          "type": "bytes32"
        },
        {
          "indexed": true,
          "internalType": "uint256",
          "name": "gameweek",
          "type": "uint256"
        },
        {
          "indexed": true,
          "internalType": "uint256",
          "name": "matchId",
          "type": "uint256"
        },
        {
          "indexed": false,
          "internalType": "uint8",
          "name": "homeScore",
          "type": "uint8"
        },
        {
          "indexed": false,
          "internalType": "uint8",
          "name": "awayScore",
          "type": "uint8"
        },
        {
          "indexed": false,
          "internalType": "string",
          "name": "status",
          "type": "string"
        }
      ],
      "name": "ResultFulfilled",
      "type": "event"
    },
    {
      "anonymous": false,
      "inputs": [
        {
          "indexed": true,
          "internalType": "uint256",
          "name": "gameweek",
          "type": "uint256"
        },
        {
          "indexed": true,
          "internalType": "uint256",
          "name": "matchId",
          "type": "uint256"
        },
        {
          "indexed": false,
          "internalType": "uint8",
          "name": "homeScore",
          "type": "uint8"
        },
        {
          "indexed": false,
          "internalType": "uint8",
          "name": "awayScore",
          "type": "uint8"
        },
        {
          "indexed": false,
          "internalType": "string",
          "name": "status",
          "type": "string"
        },
        {
          "indexed": false,
          "internalType": "address",
          "name": "setBy",
          "type": "address"
        }
      ],
      "name": "ResultManuallySet",
      "type": "event"
    },
    {
      "anonymous": false,
      "inputs": [
        {
          "indexed": true,
          "internalType": "bytes32",
          "name": "requestId",
          "type": "bytes32"
        },
        {
          "indexed": true,
          "internalType": "uint256",
          "name": "gameweek",
          "type": "uint256"
        },
        {
          "indexed": true,
          "internalType": "uint256",
          "name": "matchId",
          "type": "uint256"
        }
      ],
      "name": "ResultRequested",
      "type": "event"
    },
    {
      "inputs": [],
      "name": "acceptOwnership",
      "outputs": [],
      "stateMutability": "nonpayable",
      "type": "function"
    },
    {
      "inputs": [
        {
          "internalType": "address",
          "name": "caller",
          "type": "address"
        }
      ],
      "name": "addAuthorizedCaller",
      "outputs": [],
      "stateMutability": "nonpayable",
      "type": "function"
    },
    {
      "inputs": [
        {
          "internalType": "address",
          "name": "",
          "type": "address"
        }
      ],
      "name": "authorizedCallers",
      "outputs": [
        {
          "internalType": "bool",
          "name": "",
          "type": "bool"
        }
      ],
      "stateMutability": "view",
      "type": "function"
    },
    {
      "inputs": [
        {
          "internalType": "uint256",
          "name": "",
          "type": "uint256"
        },
        {
          "internalType": "uint256",
          "name": "",
          "type": "uint256"
        }
      ],
      "name": "gameOutcomes",
      "outputs": [
        {
          "internalType": "uint8",
          "name": "homeScore",
          "type": "uint8"
        },
        {
          "internalType": "uint8",
          "name": "awayScore",
          "type": "uint8"
        },
        {
          "internalType": "string",
          "name": "status",
          "type": "string"
        },
        {
          "internalType": "uint256",
          "name": "timestamp",
          "type": "uint256"
        },
        {
          "internalType": "bool",
          "name": "exists",
          "type": "bool"
        }
      ],
      "stateMutability": "view",
      "type": "function"
    },
    {
      "inputs": [
        {
          "internalType": "uint256",
          "name": "gameweek",
          "type": "uint256"
        },
        {
          "internalType": "uint256",
          "name": "matchId",
          "type": "uint256"
        }
      ],
      "name": "getOutcome",
      "outputs": [
        {
          "components": [
            {
              "internalType": "uint8",
              "name": "homeScore",
              "type": "uint8"
            },
            {
              "internalType": "uint8",
              "name": "awayScore",
              "type": "uint8"
            },
            {
              "internalType": "string",
              "name": "status",
              "type": "string"
            },
            {
              "internalType": "uint256",
              "name": "timestamp",
              "type": "uint256"
            },
            {
              "internalType": "bool",
              "name": "exists",
              "type": "bool"
            }
          ],
          "internalType": "struct ResultsConsumer.MatchOutcome",
          "name": "",
          "type": "tuple"
        }
      ],
      "stateMutability": "view",
      "type": "function"
    },
    {
      "inputs": [
        {
          "internalType": "bytes32",
          "name": "requestId",
          "type": "bytes32"
        }
      ],
      "name": "getRequest",
      "outputs": [
        {
          "components": [
            {
              "internalType": "uint256",
              "name": "gameweek",
              "type": "uint256"
            },
            {
              "internalType": "uint256",
              "name": "matchId",
              "type": "uint256"
            },
            {
              "internalType": "address",
              "name": "requester",
              "type": "address"
            },
            {
              "internalType": "uint256",
              "name": "timestamp",
              "type": "uint256"
            },
            {
              "internalType": "bool",
              "name": "isFulfilled",
              "type": "bool"
            }
          ],
          "internalType": "struct ResultsConsumer.MatchRequest",
          "name": "",
          "type": "tuple"
        }
      ],
      "stateMutability": "view",
      "type": "function"
    },
    {
      "inputs": [
        {
          "internalType": "bytes32",
          "name": "requestId",
          "type": "bytes32"
        },
        {
          "internalType": "bytes",
          "name": "response",
          "type": "bytes"
        },
        {
          "internalType": "bytes",
          "name": "err",
          "type": "bytes"
        }
      ],
      "name": "handleOracleFulfillment",
      "outputs": [],
      "stateMutability": "nonpayable",
      "type": "function"
    },
    {
      "inputs": [
        {
          "internalType": "uint256",
          "name": "gameweek",
          "type": "uint256"
        },
        {
          "internalType": "uint256",
          "name": "matchId",
          "type": "uint256"
        }
      ],
      "name": "hasOutcome",
      "outputs": [
        {
          "internalType": "bool",
          "name": "",
          "type": "bool"
        }
      ],
      "stateMutability": "view",
      "type": "function"
    },
    {
      "inputs": [],
      "name": "owner",
      "outputs": [
        {
          "internalType": "address",
          "name": "",
          "type": "address"
        }
      ],
      "stateMutability": "view",
      "type": "function"
    },
    {
      "inputs": [
        {
          "internalType": "address",
          "name": "caller",
          "type": "address"
        }
      ],
      "name": "removeAuthorizedCaller",
      "outputs": [],
      "stateMutability": "nonpayable",
      "type": "function"
    },
    {
      "inputs": [
        {
          "internalType": "uint256",
          "name": "gameweek",
          "type": "uint256"
        },
        {
          "internalType": "uint256",
          "name": "matchId",
          "type": "uint256"
        }
      ],
      "name": "requestResult",
      "outputs": [
        {
          "internalType": "bytes32",
          "name": "requestId",
          "type": "bytes32"
        }
      ],
      "stateMutability": "nonpayable",
      "type": "function"
    },
    {
      "inputs": [],
      "name": "s_callbackGasLimit",
      "outputs": [
        {
          "internalType": "uint32",
          "name": "",
          "type": "uint32"
        }
      ],
      "stateMutability": "view",
      "type": "function"
    },
    {
      "inputs": [],
      "name": "s_donId",
      "outputs": [
        {
          "internalType": "bytes32",
          "name": "",
          "type": "bytes32"
        }
      ],
      "stateMutability": "view",
      "type": "function"
    },
    {
      "inputs": [],
      "name": "s_requestConfirmations",
      "outputs": [
        {
          "internalType": "uint16",
          "name": "",
          "type": "uint16"
        }
      ],
      "stateMutability": "view",
      "type": "function"
    },
    {
      "inputs": [
        {
          "internalType": "bytes32",
          "name": "",
          "type": "bytes32"
        }
      ],
      "name": "s_requests",
      "outputs": [
        {
          "internalType": "uint256",
          "name": "gameweek",
          "type": "uint256"
        },
        {
          "internalType": "uint256",
          "name": "matchId",
          "type": "uint256"
        },
        {
          "internalType": "address",
          "name": "requester",
          "type": "address"
        },
        {
          "internalType": "uint256",
          "name": "timestamp",
          "type": "uint256"
        },
        {
          "internalType": "bool",
          "name": "isFulfilled",
          "type": "bool"
        }
      ],
      "stateMutability": "view",
      "type": "function"
    },
    {
      "inputs": [],
      "name": "s_subscriptionId",
      "outputs": [
        {
          "internalType": "uint64",
          "name": "",
          "type": "uint64"
        }
      ],
      "stateMutability": "view",
      "type": "function"
    },
    {
      "inputs": [
        {
          "internalType": "uint32",
          "name": "callbackGasLimit",
          "type": "uint32"
        }
      ],
      "name": "setCallbackGasLimit",
      "outputs": [],
      "stateMutability": "nonpayable",
      "type": "function"
    },
    {
      "inputs": [
        {
          "internalType": "bytes32",
          "name": "donId",
          "type": "bytes32"
        }
      ],
      "name": "setDonId",
      "outputs": [],
      "stateMutability": "nonpayable",
      "type": "function"
    },
    {
      "inputs": [
        {
          "internalType": "uint256",
          "name": "gameweek",
          "type": "uint256"
        },
        {
          "internalType": "uint256",
          "name": "matchId",
          "type": "uint256"
        },
        {
          "internalType": "uint8",
          "name": "homeScore",
          "type": "uint8"
        },
        {
          "internalType": "uint8",
          "name": "awayScore",
          "type": "uint8"
        },
        {
          "internalType": "string",
          "name": "status",
          "type": "string"
        }
      ],
      "name": "setResultManually",
      "outputs": [],
      "stateMutability": "nonpayable",
      "type": "function"
    },
    {
      "inputs": [
        {
          "internalType": "uint64",
          "name": "subscriptionId",
          "type": "uint64"
        }
      ],
      "name": "setSubscriptionId",
      "outputs": [],
      "stateMutability": "nonpayable",
      "type": "function"
    },
    {
      "inputs": [
        {
          "internalType": "address",
          "name": "to",
          "type": "address"
        }
      ],
      "name": "transferOwnership",
      "outputs": [],
      "stateMutability": "nonpayable",
      "type": "function"
    }
  ],
  "bytecode": "0x60a060405234620000e7576200322c803803806200001d8162000102565b9283398101604082820312620000e75781516001600160a01b0381168103620000e75760208381015190936001600160401b039190828211620000e7570183601f82011215620000e7578051918211620000ec5762000085601f8301601f1916860162000102565b93828552858383010111620000e75760005b828110620000d3575050620000b3936000918401015262000128565b60405161306f9081620001bd82396080518181816102b10152610f7d0152f35b818101860151858201870152850162000097565b600080fd5b634e487b7160e01b600052604160045260246000fd5b6040519190601f01601f191682016001600160401b03811183821017620000ec57604052565b6001600160a01b031660805233156200017757600080546001600160a01b03191633179055602001516002556003805465ffffffffffff60401b19166c03000493e00000000000000000179055565b60405162461bcd60e51b815260206004820152601860248201527f43616e6e6f7420736574206f776e657220746f207a65726f00000000000000006044820152606490fdfe6080604052600436101561001257600080fd5b60003560e01c80630ca76175146101675780630e9d5e451461016257806313a155ea1461015d578063260e10a014610158578063536fff6c1461015357806371be83241461014e57806378ca5de71461014957806379ba5097146101445780637a9f25d31461013f5780638ac000211461013a5780638da5cb5b14610135578063a2c38c9114610130578063a4eb718c1461012b578063b7aa023114610126578063c28f734214610121578063c5b4e9371461011c578063dfd6edd214610117578063ea7b4f7714610112578063f2fde38b1461010d578063f88ea2c9146101085763fb1e61ca1461010357600080fd5b610d40565b610d1b565b610c69565b610bcc565b610bae565b610b87565b610afc565b610a54565b61098f565b610825565b6107fc565b6107d5565b61076c565b61069d565b61062a565b6105c6565b610592565b61050c565b610386565b610322565b610262565b634e487b7160e01b600052604160045260246000fd5b60a081019081106001600160401b0382111761019d57604052565b61016c565b604081019081106001600160401b0382111761019d57604052565b90601f801991011681019081106001600160401b0382111761019d57604052565b604051906101eb82610182565b565b6001600160401b03811161019d57601f01601f191660200190565b929192610214826101ed565b9161022260405193846101bd565b82948184528183011161023f578281602093846000960137010152565b600080fd5b9080601f8301121561023f5781602061025f93359101610208565b90565b3461023f57606036600319011261023f576004356001600160401b0360243581811161023f57610296903690600401610244565b9060443590811161023f576102af903690600401610244565b7f00000000000000000000000000000000000000000000000000000000000000006001600160a01b03163303610310576102e99183612071565b7f85e1543bf2f84fe80c6badbce3648c8539ad1df4d2b3d822938ca0538be727e6600080a2005b60405163c6829f8360e01b8152600490fd5b3461023f57604036600319011261023f5760043560005260066020526040600020602435600052602052602060ff600360406000200154166040519015158152f35b602090600319011261023f576004356001600160a01b038116810361023f5790565b3461023f5761039436610364565b61039c610e11565b6001600160a01b03166000818152600460205260408120805460ff19166001179055907feb1b9b92e50b7f88f9ff25d56765095ac6e91540eee214906f4036a908ffbdef8280a280f35b90600182811c92168015610416575b602083101461040057565b634e487b7160e01b600052602260045260246000fd5b91607f16916103f5565b9060405191826000825492610434846103e6565b9081845260019485811690816000146104a1575060011461045e575b50506101eb925003836101bd565b9093915060005260209081600020936000915b8183106104895750506101eb93508201013880610450565b85548884018501529485019487945091830191610471565b9150506101eb94506020925060ff191682840152151560051b8201013880610450565b60005b8381106104d75750506000910152565b81810151838201526020016104c7565b90602091610500815180928185528580860191016104c4565b601f01601f1916010190565b3461023f57604036600319011261023f576004356000526006602052604060002060243560005260205260ff604060002080549061054c60018201610420565b61058184600360028501549401541691604051958581889716875260081c16602086015260a0604086015260a08501906104e7565b916060840152151560808301520390f35b3461023f576001600160a01b036105a836610364565b166000526004602052602060ff604060002054166040519015158152f35b3461023f57602036600319011261023f57600435600052600560205260a06040600020805490600181015490600180851b0360028201541660ff60046003840154930154169260405194855260208501526040840152606083015215156080820152f35b3461023f57602036600319011261023f577f80a21b969c55393793501f2badbd6cb6623b2dbc925e7beb94504ad2212b7b08600435610667610e11565b6002819055600354604080519283526001600160401b038216602084015290811c63ffffffff169082015280606081015b0390a1005b3461023f57600080600319360112610759576001546001600160a01b03908116330361071b5781546001600160a01b0316600080546001600160a01b0319163317905590600180546001600160a01b03191690553391167f8be0079c531659141344cd1fd0a4f28419497f9722a3daafe3b4186f6b6457e08380a380f35b60405162461bcd60e51b815260206004820152601660248201527526bab9ba10313290383937b837b9b2b21037bbb732b960511b6044820152606490fd5b80fd5b6064359060ff8216820361023f57565b3461023f5760a036600319011261023f5760443560ff8116810361023f5761079261075c565b90608435916001600160401b03831161023f573660238401121561023f576107c76107d3933690602481600401359101610208565b91602435600435612e1d565b005b3461023f57600036600319011261023f5760206001600160401b0360035416604051908152f35b3461023f57600036600319011261023f576000546040516001600160a01b039091168152602090f35b3461023f5760408060031936011261023f576004356024359161086b6108676108603360018060a01b03166000526004602052604060002090565b5460ff1690565b1590565b8061097a575b61096457811561095457821561094457610940906108cc6108ac6108958686612656565b6108a76108a0610e63565b9182611392565b6111bf565b600354600254916001600160401b0363ffffffff83871c16921690610f25565b9061090d6108d86101de565b85815260208101879052338382015242606082015260006080820152610908846000526005602052604060002090565b610eac565b51938493827f0d82b6cf69645ac36ea1b42326bdf33f57176cb946d0d9dbe0aacfe102c84c8c600080a482526020820190565b0390f35b516324f45c6160e21b8152600490fd5b516332f1391560e11b8152600490fd5b5163d86ad9cf60e01b8152336004820152602490fd5b506000546001600160a01b0316331415610871565b3461023f57602036600319011261023f5760043563ffffffff80821680830361023f576109ba610e11565b15610a4257600380546bffffffff0000000000000000198116604094851b6bffffffff000000000000000016179182905560025484519081526001600160401b03909116602082015263ffffffff91841c90921616918101919091527f80a21b969c55393793501f2badbd6cb6623b2dbc925e7beb94504ad2212b7b08908060608101610698565b60405163c52a9bd360e01b8152600490fd5b3461023f57610a6236610364565b610a6a610e11565b6001600160a01b03166000818152600460205260408120805460ff19169055907fc3803387881faad271c47728894e3e36fac830ffc8602ca6fc07733cbda775808280a280f35b6020815260ff825116602082015260ff602083015116604082015260a06080610ae8604085015183606086015260c08501906104e7565b936060810151828501520151151591015290565b3461023f5760408060031936011261023f5761094090610b1a61223c565b50600435600052600660205280600020602435600052602052806000209060ff6003825193610b4885610182565b828154818116875260081c166020860152610b6560018201610420565b8486015260028101546060860152015416151560808301525191829182610ab1565b3461023f57600036600319011261023f57602060035463ffffffff6040519160401c168152f35b3461023f57600036600319011261023f576020600254604051908152f35b3461023f57602036600319011261023f576004356001600160401b03811680910361023f5763ffffffff7f80a21b969c55393793501f2badbd6cb6623b2dbc925e7beb94504ad2212b7b0891610c20610e11565b6003805467ffffffffffffffff1916821790819055600254604080519182526001600160401b03909316602082015263ffffffff91831c90931616908201528060608101610698565b3461023f57610c7736610364565b610c7f610e11565b6001600160a01b0390811690338214610cd657816bffffffffffffffffffffffff60a01b6001541617600155600054167fed8889f560326eb138920d842192f0eb3dd22b4f139c87a2c57538e05bae1278600080a3005b60405162461bcd60e51b815260206004820152601760248201527f43616e6e6f74207472616e7366657220746f2073656c660000000000000000006044820152606490fd5b3461023f57600036600319011261023f57602061ffff60035460601c16604051908152f35b3461023f57602036600319011261023f5761094060408060808151610d6481610182565b60009181838093528260208201528285820152826060820152015260043581526005602052209060ff6004825193610d9b85610182565b805485526001810154602086015260018060a01b03600282015416848601526003810154606086015201541615156080830152519182918291909160808060a0830194805184526020810151602085015260018060a01b0360408201511660408501526060810151606085015201511515910152565b6000546001600160a01b03163303610e2557565b60405162461bcd60e51b815260206004820152601660248201527527b7363c9031b0b63630b1363290313c9037bbb732b960511b6044820152606490fd5b6040519060e082018281106001600160401b0382111761019d57604052606060c08360008152600060208201526000604082015282808201528260808201528260a08201520152565b600460806101eb9380518455602081015160018501556002840160018060a01b036040830151166bffffffffffffffffffffffff60a01b825416179055606081015160038501550151151591019060ff801983541691151516179055565b9081602091031261023f575190565b6040513d6000823e3d90fd5b92906020926001600160401b039263ffffffff610f64604051978896879663230e93b160e11b885216600487015260a0602487015260a48601906104e7565b60016044860152921660648401526084830152038160007f00000000000000000000000000000000000000000000000000000000000000006001600160a01b03165af190811561100e57600091610fe0575b50807f1131472297a800fee664d1d89cfa8f7676ff07189ecc53f80bbb5f4969099db8600080a290565b611001915060203d8111611007575b610ff981836101bd565b810190610f0a565b38610fb6565b503d610fef565b610f19565b60405190602082018281106001600160401b0382111761019d5760405260008252565b60405190611043826101a2565b600c82526b31b7b232a637b1b0ba34b7b760a11b6020830152565b634e487b7160e01b600052602160045260246000fd5b6003111561107e57565b61105e565b60405190611090826101a2565b60088252676c616e677561676560c01b6020830152565b6001111561107e57565b604051906110be826101a2565b6006825265736f7572636560d01b6020830152565b604051906110e0826101a2565b60048252636172677360e01b6020830152565b634e487b7160e01b600052601160045260246000fd5b60001981146111185760010190565b6110f3565b634e487b7160e01b600052603260045260246000fd5b80518210156111475760209160051b010190565b61111d565b60405190611159826101a2565b600f82526e39b2b1b932ba39a637b1b0ba34b7b760891b6020830152565b60405190611184826101a2565b60078252667365637265747360c81b6020830152565b604051906111a7826101a2565b600982526862797465734172677360b81b6020830152565b6111c76113d5565b906111d96111d3611036565b83611b6d565b6111f681516111e781611074565b6111f081611074565b836114cb565b6112016111d3611083565b61121b6040820151611212816110a7565b6111f0816110a7565b6112266111d36110b1565b611234606082015183611b6d565b60a08101805151611339575b5060808101908151516112b9575b60c0915001805151611261575b50515190565b9161126d6111d361119a565b61127682611bf1565b60005b835180518210156112a6579061129c611295826112a194611133565b5185611ab8565b611109565b611279565b505091506112b381611c7d565b3861125b565b6020810180516112c881611074565b6112d181611074565b156113275760c09261130a611322926112f16112eb61114c565b88611b6d565b516112fb81611074565b61130481611074565b866114cb565b61131b611315611177565b86611b6d565b5184611ab8565b61124e565b60405163a80d31f760e01b8152600490fd5b9261134b6113456110d3565b84611b6d565b61135483611bf1565b60005b8451805182101561137f579061129c6113738261137a94611133565b5186611b6d565b611357565b5050925061138c82611c7d565b38611240565b8151156113a9576000808252604082015260600152565b6040516322ce3edd60e01b8152600490fd5b604051906113c8826101a2565b6000602083606081520152565b6040516113e1816101a2565b6113e96113bb565b80825260208201600081526113fc6113bb565b50610100602083015260405180925260008252610120820191821061023f576000916040525290565b601f1981019190821161111857565b60001981019190821161111857565b9190820391821161111857565b906020820180921161111857565b906001820180921161111857565b9190820180921161111857565b906114826113bb565b50601f8116806114b1575b508060208301526040519081835260008252810160200190811061023f5760405290565b60200360208111611118578101809111611118573861148d565b908151916114d76113bb565b508251516001810190818111611118576020850151811015611530575b60c260206101eb9651928301015380518211611528575b505060405191602083015260208252611523826101a2565b611ab8565b52388061150b565b8160011b9482860460021483151715611118576020816115626101eb9861155b60c295519184611479565b5082611a00565b50965050506114f4565b908160011b918083046002149015171561111857565b90600a820291808304600a149015171561111857565b6115a06113bb565b5080515160018101908181116111185760208301518110156115d9575b605b602084519283010153805182116115d557505090565b5290565b8160011b8281046002148315171561111857611602906115fb85519186611479565b5084611a00565b506115bd565b6116106113bb565b508051516001810190818111611118576020830151811015611645575b605a602084519283010153805182116115d557505090565b8160011b8281046002148315171561111857611667906115fb85519186611479565b5061162d565b6116756113bb565b5080515160018101908181116111185760208301518110156116aa575b6059602084519283010153805182116115d557505090565b8160011b82810460021483151715611118576116cc906115fb85519186611479565b50611692565b6116da6113bb565b50805151600181019081811161111857602083015181101561170f575b6058602084519283010153805182116115d557505090565b8160011b8281046002148315171561111857611731906115fb85519186611479565b506116f7565b61173f6113bb565b508051516001810190818111611118576020830151811015611774575b607b602084519283010153805182116115d557505090565b8160011b8281046002148315171561111857611796906115fb85519186611479565b5061175c565b6117a46113bb565b5080515160018101908181116111185760208301518110156117d9575b607a602084519283010153805182116115d557505090565b8160011b82810460021483151715611118576117fb906115fb85519186611479565b506117c1565b6118096113bb565b50805151600181019081811161111857602083015181101561183e575b6079602084519283010153805182116115d557505090565b8160011b8281046002148315171561111857611860906115fb85519186611479565b50611826565b61186e6113bb565b5080515160018101908181116111185760208301518110156118a3575b6078602084519283010153805182116115d557505090565b8160011b82810460021483151715611118576118c5906115fb85519186611479565b5061188b565b906118d46113bb565b508151516001810191828211611118576020840151821015611907575b602084519283010153805182116115d557505090565b8260011b83810460021484151715611118576119309061192986519187611479565b5085611a00565b506118f1565b9061194382519183611479565b5061194c6113bb565b508051906119586113bb565b506119668151831115611ab1565b82515192611974838561146c565b9160209282848094015182116119e9575b51838151978201019682116119e1575b505001915b818110156119bb5760001991036101000a0190811990511690825116179052565b91926119d66119d06119dc9286518152611450565b94611450565b92611425565b61199a565b523880611995565b6119fb6119f58361156c565b82611936565b611985565b90611a096113bb565b508051611a146113bb565b50611a228251821115611ab1565b82515191611a30828461146c565b6020918291828701518111611a9a575b865183815197820101968211611a92575b505001915b81811015611a785760001991036101000a019081199051169082511617905290565b91926119d66119d0611a8d9286518152611450565b611a56565b523880611a51565b611aac611aa68261156c565b88611936565b611a40565b1561023f57565b8151611aef9291906001600160401b0381169060178211611af257611ae79150604060ff8451921617906118cb565b505b51611a00565b50565b5060ff8111611b1757611b1190611b0983516116d2565b508251611e46565b50611ae9565b61ffff8111611b3657611b1190611b2e835161166d565b508251611ddf565b63ffffffff8111611b5757611b1190611b4f8351611608565b508251611d76565b611b1190611b658351611598565b508251611d0a565b8151611aef9291906001600160401b0381169060178211611b9c57611ae79150606060ff8451921617906118cb565b5060ff8111611bb357611b1190611b098351611866565b61ffff8111611bca57611b1190611b2e8351611801565b63ffffffff8111611be357611b1190611b4f835161179c565b611b1190611b658351611737565b805190611bfc6113bb565b508151516001810190818111611118576020840151811015611c4a575b609f6020809551928301015380518211611c42575b505001805190600182018092116111185752565b523880611c2e565b8160011b938285046002148315171561111857602081611c73829761155b609f95519184611479565b5095505050611c19565b805190611c886113bb565b508151516001810190818111611118576020840151811015611cd7575b60ff6020809551928301015380518211611ccf575b50500180516000198101919082116111185752565b523880611cba565b8160011b938285046002148315171561111857602081611d00829761155b60ff95519184611479565b5095505050611ca5565b90611d136113bb565b508151518060080191826008116111185760208401518311611d55575b6008845192830101906001600160401b0319825116179052805182116115d557505090565b8260011b8381046002148415171561111857611d719085611936565b611d30565b90611d7f6113bb565b508151518060040191826004116111185760208401518311611dbe575b60048451928301019063ffffffff19825116179052805182116115d557505090565b8260011b8381046002148415171561111857611dda9085611936565b611d9c565b90611de86113bb565b508151518060020191826002116111185760208401518311611e25575b60028451928301019061ffff19825116179052805182116115d557505090565b8260011b8381046002148415171561111857611e419085611936565b611e05565b90611e4f6113bb565b508151518060010191826001116111185760208401518311611e8b575b60018451928301019060ff19825116179052805182116115d557505090565b8260011b8381046002148415171561111857611ea79085611936565b611e6c565b90602061025f9281815201906104e7565b90601f8111611ecb57505050565b600091825260208220906020601f850160051c83019410611f07575b601f0160051c01915b828110611efc57505050565b818155600101611ef0565b9092508290611ee7565b60ff8251169181548360ff19821617835560209361ff008584015160081b169161ffff191617178255600192838301906040830151948551916001600160401b03831161019d57611f6c83611f6686546103e6565b86611ebd565b80601f8411600114611fd3575092828060809460039794611fb5976101eb9b600094611fc8575b50501b9160001990881b1c19161790555b606081015160028601550151151590565b91019060ff801983541691151516179055565b015192503880611f93565b9193949596601f198416611fec87600052602060002090565b936000905b828210612039575050936101eb98979360039793611fb597938360809810612021575b505050811b019055611fa4565b0151600019838a1b60f8161c19169055388080612014565b808886978294978701518155019601940190611ff1565b60ff61025f94938160609416835216602082015281604082015201906104e7565b9190612087836000526005602052604060002090565b918254156122235760048301805460ff1661220a57805460ff1916600117905580516121cf57506120b7906122ab565b916120c86108676080850151151590565b80156121c2575b612161577f9f595c67213ff3d54fb78727aee346cab0e2b419b0fcbfad9a5ebab2c97803d061210983546000526006602052604060002090565b9261212b8561212660018401968754600052602052604060002090565b611f11565b5492549361213a815160ff1690565b61215c604061214d602085015160ff1690565b93015160405193849384612050565b0390a4565b915060018154910154917f8aed9bd0a3e9a299246f1622d6b03c514cdc86c2b0afb5e8426bfccd47ff889d6040518061215c81606090602081526013602082015272496e76616c696420726573756c74206461746160681b60408201520190565b50604083015151156120cf565b9290507f8aed9bd0a3e9a299246f1622d6b03c514cdc86c2b0afb5e8426bfccd47ff889d61215c600184549401549460405191829182611eac565b60405163511f5e1d60e11b815260048101869052602490fd5b60405163a48032d560e01b815260048101859052602490fd5b6040519061224982610182565b6000608083828152826020820152606060408201528260608201520152565b908151811015611147570160200190565b90612283826101ed565b61229060405191826101bd565b82815280926122a1601f19916101ed565b0190602036910137565b6122b361223c565b508051156124cc57600090816122c7611013565b938180948193825b865181101561246357600b60fa1b806123096122fc6122ee858c612268565b516001600160f81b03191690565b6001600160f81b03191690565b148015612451575b612325575b5061232090611109565b6122cf565b61233c6122fc6122ee848b9c98969c9a959a612268565b036124495785915b84612372575061235e9161235891886124fe565b92611109565b9561232061236b8661145e565b9590612316565b9392600180850361239357505061235e9161238d91886124fe565b91611109565b9190939960028b1460001461241857506123b56123b08285611443565b612279565b926000835b6123cd575b5050505061235e9097611109565b6123d78383611443565b8110156124135761240d816123fa6122ee8d6123f489968961146c565b90612268565b60001a6124078289612268565b53611109565b906123ba565b6123bf565b9992915060038314612430575b505061235e90611109565b61235e9298509061244191886125a2565b969038612425565b865191612344565b5061245c8851611434565b8214612311565b50929691955061025f94508215159350836124c1575b836124b4575b6124a19061249761248e6101de565b60ff9098168852565b60ff166020870152565b6040850152606084015215156080830152565b8151600a1015935061247f565b815115159350612479565b506124d56101de565b60008152600060208201526124e8611013565b6040820152600060608201526000608082015290565b90926000935b83811080612598575b1561258c5761251c8184612268565b51600360fc1b6001600160f81b0319821690811015908161257d575b5061254d575b5061254890611109565b612504565b909461255890611582565b9060ff9060f81c602f190181811161111857168101809111611118579361254861253e565b603960f81b1015905038612538565b5092905060ff91501690565b508251811061250d565b90926000935b83811080612635575b1561262f576125c08184612268565b51600360fc1b6001600160f81b03198216908110159081612620575b506125f1575b506125ec90611109565b6125a8565b90946125fc90611582565b9060f81c602f199080828101116111185782010180911161111857936125ec6125e2565b603960f81b10159050386125dc565b50915050565b50825181106125b1565b90612652602092828151948592016104c4565b0190565b61265f90612f9f565b9061266990612f9f565b60405170031b7b739ba1033b0b6b2bbb2b2b5901e9607d1b602082015291829190603183016126979161263f565b603b60f81b81526001016f031b7b739ba1036b0ba31b424b2101e960851b81526010016126c39161263f565b603b60f81b81526001017f2f2f2046504c2041504920656e64706f696e74202d20666574636820616c6c2081527f666978747572657320666f72207468652067616d657765656b0000000000000060208201526039017f636f6e73742075726c203d202768747470733a2f2f66616e746173792e70726581527f6d6965726c65616775652e636f6d2f6170692f66697874757265732f3f65766560208201526f6e743d27202b2067616d657765656b3b60801b6040820152605001730bcbc813585ad94812151514081c995c5d595cdd60621b81526014017f636f6e737420726573706f6e7365203d2061776169742046756e6374696f6e738152712e6d616b654874747052657175657374287b60701b60208201526032016a08081d5c9b0e881d5c9b0b60aa1b8152600b016f08081b595d1a1bd90e8809d1d15509cb60821b81526010016b2020686561646572733a207b60a01b8152600c017f2020202027436f6e74656e742d54797065273a20276170706c69636174696f6e8152652f6a736f6e2760d01b60208201526026016220207d60e81b8152600301627d293b60e81b81526003016f2f2f2048616e646c65206572726f727360801b81526010017469662028726573706f6e73652e6572726f7229207b60581b81526015017f20207468726f77206e6577204572726f722860415049204572726f723a20247b815271726573706f6e73652e6572726f727d60293b60701b6020820152603201607d60f81b81526001017f2f2f2056616c696461746520726573706f6e73652073747275637475726500008152601e017f6966202821726573706f6e73652e64617461207c7c202141727261792e6973418152757272617928726573706f6e73652e646174612929207b60501b60208201526036017f20207468726f77206e6577204572726f722827496e76616c69642041504920728152736573706f6e73652073747275637475726527293b60601b6020820152603401607d60f81b81526001017f2f2f2046696e6420746865207370656369666963206d6174636820627920494481526020017f636f6e7374206669787475726573203d20726573706f6e73652e646174613b008152601f017f636f6e7374206d61746368203d2066697874757265732e66696e642866203d3e81527f20662e6964203d3d3d207061727365496e74286d61746368496429293b0000006020820152603d016c69662028216d6174636829207b60981b8152600d017f20207468726f77206e6577204572726f7228604d6174636820247b6d6174636881527f49647d206e6f7420666f756e6420696e2067616d657765656b20247b67616d656020820152677765656b7d60293b60c01b6040820152604801607d60f81b81526001017f2f2f20457874726163742073636f72657320616e6420737461747573000000008152601c017f636f6e737420686f6d6553636f7265203d206d617463682e7465616d5f685f7381527f636f726520213d3d206e756c6c203f206d617463682e7465616d5f685f73636f6020820152667265203a20303b60c81b60408201526047017f636f6e7374206177617953636f7265203d206d617463682e7465616d5f615f7381527f636f726520213d3d206e756c6c203f206d617463682e7465616d5f615f73636f6020820152667265203a20303b60c81b60408201526047017f636f6e737420737461747573203d206d617463682e66696e6973686564203f2081527f27465427203a20286d617463682e73746172746564203f20274c49564527203a60208201526620274e5327293b60c81b60408201526047016f02f2f204765742074696d657374616d760841b81526010017f636f6e73742074696d657374616d70203d206d617463682e6b69636b6f66665f81527f74696d65203f204d6174682e666c6f6f72286e65772044617465286d6174636860208201527f2e6b69636b6f66665f74696d65292e67657454696d652829202f20313030302960408201527f203a204d6174682e666c6f6f7228446174652e6e6f772829202f2031303030296060820152603b60f81b60808201526081017f2f2f2052657475726e20617320636f6d6d612d7365706172617465642073747281527f696e67202865617369657220746f20706172736520696e20536f6c69646974796020820152602960f81b60408201526041017f2f2f20466f726d61743a20686f6d6553636f72652c6177617953636f72652c7381526e074617475732c74696d657374616d7608c1b6020820152602f017f2f2f204578616d706c653a20322c312c46542c313730313233343536370000008152601d017f636f6e737420726573756c74537472696e67203d20686f6d6553636f7265202b81527f20272c27202b206177617953636f7265202b20272c27202b20737461747573206020820152712b20272c27202b2074696d657374616d703b60701b60408201526052017f72657475726e2046756e6374696f6e732e656e636f6465537472696e6728726581526b73756c74537472696e67293b60a01b6020820152602c0103601f198101825261025f90826101bd565b92939093612e29610e11565b8315612f55578415612f4357612e696003612e6187612e52886000526006602052604060002090565b90600052602052604060002090565b015460ff1690565b612f1e5781518015908115612f13575b50612f0157612efc7f5a5a705bfb571fa32e13e1b89c3cd14681395de430e9c005461ffc95386e487193612eee612eae6101de565b60ff8316815260ff85166020820152856040820152426060820152612ed66080820160019052565b61212689612e528a6000526006602052604060002090565b604051938493339285612f67565b0390a3565b6040516307a92f1960e51b8152600490fd5b600a91501138612e79565b5050604051635d1b197360e01b81526004810192909252506024810191909152604490fd5b6040516324f45c6160e21b8152600490fd5b6040516332f1391560e11b8152600490fd5b9260ff60609381612f8f949897981686521660208501526080604085015260808401906104e7565b6001600160a01b03909416910152565b801561301b576000818181805b6130035750612fba81612279565b935b612fc65750505090565b612fcf90611434565b90600a90603082820681018091116111185760f81b6001600160f81b031916841a612ffa8487612268565b53049081612fbc565b9150613010600a91611109565b910480849291612fac565b50604051613028816101a2565b60018152600360fc1b60208201529056fea2646970667358221220f9bedc3f7b54b6daa7a27e54ecc161639d6d89d54a5af92fa5107fc413beb42564736f6c63430008140033",
  "linkReferences": {},
  "deployedLinkReferences": {}
}